:020000040800F2
:100000000080012035180008F7170008F9170008CC
:10001000FB170008FD170008FF170008000000008C
:1000200000000000000000000000000001180008AF
:100030000318000800000000051800080718000851
:10004000851800088518000885180008851800081C
:10005000851800088518000885180008851800080C
:1000600085180008851800088518000885180008FC
:1000700085180008851800088518000885180008EC
:100080008518000885180008851800080000000081
:1000900000000000000000000000000085180008BB
:1000A00085180008851800088518000885180008BC
:1000B00085180008851800088518000885180008AC
:1000C000851800088518000885180008851800089C
:1000D00085180008851800081118000800000000A5
:1000E0008518000885180008851800080000000021
:1000F000000000000000000000000000851800085B
:100100000000000085180008851800088518000800
:1001100000000000000000000000000000000000DF
:10012000851800088518000885180008851800083B
:10013000851800080000000000000000000000001A
:10014000000000000000000000000000851800080A
:10015000851800088518000885180008851800080B
:100160008518000885180008000000000000000045
:10017000000000000000000000000000000000007F
:1001800000000000851800080000000000000000CA
:0401900085180008C6
:1001940053B94AB9002908BF00281CBF4FF0FF31EA
:1001A4004FF0FF3000F00CB8ADF1080C6DE904CE4F
:1001B40001F094FBDDF804E0DDE9022304B07047AC
:1001C400704700BF08B5064B1A783AB9054A1AB108
:1001D4000548AFF30080024B01221A7008BD00BF2E
:1001E4001C00002000000000001C000808B5034BA0
:1001F4001BB103490348AFF3008008BD00000000B1
:1002040020000020001C000810B504464FF0000E2A
:10021400704615E04FEA5C0C0133DBB2072B0BD8B8
:1002240080EA0C0212F0010F4FEA5000F2D080F085
:100234007300C043C0B2EDE70EF1010E5FFA8EFE0B
:100244008E4503D214F80EC00023E7E710BD00006A
:100254000C4B1B889BB201335A4203F03F0302F05C
:100264003F0258BF53429BB2074A128892B29A4245
:1002740007D004490A8892B2DFF810C00CF80200D3
:100284000B8070474C0000204A00002050000020E2
:100294000E4B1A8892B20E4B1B889BB29A4213D013
:1002A4000B4A13889BB20B49CB5C037013889BB237
:1002B4000133594203F03F0301F03F0158BF4B4261
:1002C4009BB2138001207047002070474C0000202F
:1002D4004A00002050000020274B1B78012B09D036
:1002E400022B16D00BB9AA2800D07047224B01224A
:1002F4001A707047552805D0AA28F6D01E4B002244
:100304001A7070471C4B02221A701C4B00221A7080
:1003140070471A490A78531CDBB20B701849885489
:10032400092BE2D110B508211548FFF76DFF144BD6
:100334001B7A984203D0104B00221A7010BD104B48
:100344001A78597842EA01220E4802809A78D978BC
:1003540042EA012242801A79597942EA01228280D2
:100364009A79DB7942EA03230446C38000F0AEF9AC
:10037400A06001232373DEE7490000203C00002035
:10038400400000200000002070B58AB005AD0024B4
:10039400059406940794089409940194224B1A6BCB
:1003A40042F004021A631A6B02F004020192019AE9
:1003B40002941A6B42F080021A631A6B02F08002F4
:1003C4000292029A03941A6B42F001021A631A6BA6
:1003D40002F001020392039A04941A6B42F002029F
:1003E4001A631B6B03F002030493049B0F4E224613
:1003F4002021304600F03CFB4FF4005305934FF4AA
:100404000413069307942946094800F041FA20236F
:10041400059301230693079408942946304600F077
:1004240037FA0AB070BD00BF003802400000024035
:100434000008024008B50268064B9A4200D008BD85
:10044400054B1878FFF704FF01220349034801F024
:10045400BEF9F4E70044004090000020940000201E
:100464000368134A934200D0704700B585B0002258
:1004740000921968009159680091009901921968D5
:100484000191596801910199029219680291596880
:100494000291029903921A6803925B680393039B87
:1004A40001220449044801F092F905B000BD00BFDF
:1004B40000440040900000209400002072B6FEE743
:1004C40008B50A480A4B03604FF4E1334360002344
:1004D4008360C36003610C2242618361C36100F0E5
:1004E40057FF00B908BDFFF7E9FF00BF94000020E3
:1004F4000044004010B594B008AC302200212046DE
:1005040001F0BFF900230393049305930693079323
:1005140001931F4A116C41F080511164126C02F076
:1005240080520192019A02931A4A136823F44043B9
:1005340043F400431360136803F440430293029BA3
:10054400012308934FF4A023099302230E934FF43D
:1005540080020F92042210925422119212930723C4
:100564001393204600F0ECFA70B90F230393022191
:10057400049105904FF480520692079003A800F06E
:100584004BFD18B914B010BDFFF798FFFFF796FFA5
:10059400003802400070004010B582B000F070F8DE
:1005A400FFF7A8FFFFF7F0FEFFF78AFF01221C49BF
:1005B4001C4801F00CF903E09DF80700FFF78CFEDE
:1005C4000DF10700FFF764FE0028F5D100F07EF876
:1005D4000446154B1B7B6BB1134B9B68C31AC82B8A
:1005E40008D9114B00221A734FF48062DA809A8082
:1005F4005A801A800C4B1B7B5BB90C4B1B68E31AAB
:10060400F92BDDD920210A4800F038FA074B1C6089
:10061400D6E701222021064800F02AFAD0E700BFDD
:1006240090000020940000200000002038000020EA
:100634000000024010B504460E4B18680E4B1A78A1
:100644004FF47A73B3FBF2F3B0FBF3F000F0B0F8BD
:1006540068B90F2C01D901200AE0024621464FF067
:10066400FF3000F091F8054B1C60002000E00120F1
:1006740010BD00BF1800002010000020140000204E
:1006840008B50B4B1A6842F400721A601A6842F4F7
:1006940080621A601A6842F480721A60032000F0C3
:1006A40061F80020FFF7C6FF00F0F2F9002008BD52
:1006B400003C0240034A1168034B1B780B4413604F
:1006C400704700BFDC00002010000020014B1868B8
:1006D400704700BFDC000020002807DB00F01F0289
:1006E400400901239340024A42F82030704700BF7A
:1006F40000E100E0002808DB0901C9B200F1604014
:1007040000F5614080F80013704700F00F00090104
:10071400C9B2014B1954704714ED00E000B500F064
:100724000700A0F1030CBCF1040F07D8C0F1070EB9
:100734000430062806D84FF0000C03E04FF0040EF6
:100744004FF0000C4FF0FF3303FA0EF021EA0001E2
:1007540001FA0CF103FA0CF322EA030241EA020063
:1007640000BD0000074AD36823F4E0631B041B0C9C
:10077400000200F4E060034343F0BF6343F400333A
:10078400D360704700ED00E010B50446054BD8680F
:10079400C0F30220FFF7C2FF01462046FFF7AAFF7D
:1007A40010BD00BF00ED00E008B5FFF795FF08BDE0
:1007B4000138B0F1807F0BD24FF0E0235861054A35
:1007C400F02182F823100020986107221A617047F3
:1007D4000120704700ED00E070B50446836D1E46AD
:1007E400FFF774FF94F83530022B06D0802363653D
:1007F400002384F83430012070BD05462268136854
:1008040023F0160313602268536923F080035361B5
:10081400236CE3B12268136823F008031360226891
:10082400136823F00103136023681B6813F0010F9E
:1008340011D0FFF74BFF431B052BF5D9202363652C
:10084400032084F83500002384F83430D4E7A36C03
:10085400002BDFD1E3E7E26D3F239340B360012334
:1008640084F83530002084F83400C5E790F835303A
:10087400022B03D08023436501207047052380F8B1
:1008840035300268136823F00103136000207047B9
:1008940070B582B08E46002369E085684FEA430C48
:1008A400032101FA0CF125EA0105DEF80C1001FA26
:1008B4000CF129438160416821EA0201DEF8042039
:1008C400C2F300129A400A43426064E0D908083136
:1008D40050F8212003F00705AD004FF00F0C0CFA7F
:1008E40005FC22EA0C0CDEF81020AA4042EA0C02B5
:1008F40040F8212066E0042200E0002202FA0CF213
:100904002A430231564D45F82120564A9168E24364
:1009140021EA0405DEF8046016F4801F01D044EADD
:10092400010550498D60C96802EA0105DEF80460DA
:1009340016F4001F01D044EA01054A49CD60496814
:1009440002EA0105DEF8046016F4003F01D044EA2F
:10095400010544494D6009680A40DEF8045015F465
:10096400803F01D044EA01023E490A6001330F2B63
:1009740074D801229A40DEF8001001EA020432EA37
:100984000101F3D1DEF8041001F0030C0CF1FF3C7B
:10099400BCF1010F81D9DEF8042002F00302032A1E
:1009A4000AD0C1685D000322AA4021EA0201DEF8F0
:1009B4000820AA400A43C260DEF8042002F00302C1
:1009C400022A83D001684FEA430C032202FA0CF294
:1009D40021EA0201DEF8042002F0030202FA0CF21A
:1009E4000A430260DEF8042012F4403FBED0002225
:1009F40001921D4A516C41F480415164526C02F4DD
:100A040080420192019A99088D1C154A52F825508A
:100A140003F0030C4FEA8C0C0F2202FA0CF225EAC5
:100A24000205124A90423FF468AF02F58062904298
:100A34000ED002F5806290420CD002F580629042A2
:100A44000AD002F5806290423FF455AF072255E781
:100A5400012253E7022251E703224FE702B070BD9F
:100A640000380140003C01400038024000000240D0
:100A74000AB181617047090481617047436901EAE1
:100A8400030221EA030141EA024181617047000047
:100A940082B0002100910B4B5A6C42F480425A649C
:100AA4005A6C02F480420092009A01911A6C42F04E
:100AB40080521A641B6C03F080530193019B02B0B3
:100AC400704700BF0038024000B589B0002303938B
:100AD40004930593069307930268174B9A4201D037
:100AE40009B000BD0021019103F5FA331A6C42F4F8
:100AF40000321A641A6C02F400320192019A0291D3
:100B04001A6B42F001021A631B6B03F00103029398
:100B1400029B0C230393022304930723079303A943
:100B24000648FFF7B5FE002211462620FFF72CFEEB
:100B34002620FFF739FED3E70044004000000240BE
:100B4400002800F0E28170B582B00446036813F017
:100B5400010F3BD09B4B9B6803F00C03042B2CD060
:100B6400984B9B6803F00C03082B21D06368B3F502
:100B7400803F4FD0B3F5A02F52D0924B1A6822F485
:100B840080321A601A6822F480221A606368002B8B
:100B940050D0FFF79BFD05468A4B1B6813F4003FBA
:100BA40014D1FFF793FD401B6428F5D90320B3E16A
:100BB400844B5B6813F4800FD8D0824B1B6813F40A
:100BC400003F03D06368002B00F0A181236813F079
:100BD400020F54D07B4B9B6813F00C0F3ED0794B23
:100BE4009B6803F00C03082B33D0E368002B68D018
:100BF400754B01221A60FFF769FD0546714B1B68AE
:100C040013F0020F54D1FFF761FD401B0228F5D900
:100C1400032081E16B4A136843F480331360B5E722
:100C2400684B1A6842F480221A601A6842F48032CF
:100C34001A60ABE7FFF74AFD0546624B1B6813F4E5
:100C4400003FC3D0FFF742FD401B6428F5D90320C1
:100C540062E15C4B5B6813F4800FC6D1594B1B688F
:100C640013F0020F03D0E368012B40F05281554A80
:100C7400136823F0F803216943EAC103136023686E
:100C840013F0080F42D063696BB34F4B0122C3F8D2
:100C9400802EFFF71BFD05464A4B5B6F13F0020FD6
:100CA40034D1FFF713FD401B0228F5D9032033E1AB
:100CB400444A136823F0F803216943EAC10313602B
:100CC400DDE7414B00221A60FFF700FD05463D4B6E
:100CD4001B6813F0020FD2D0FFF7F8FC401B022868
:100CE400F5D9032018E1384B0022C3F8802EFFF712
:100CF400EDFC0546334B5B6F13F0020F06D0FFF794
:100D0400E5FC401B0228F5D9032005E1236813F014
:100D1400040F79D02B4B1B6C13F0805F34D100236C
:100D24000193284B1A6C42F080521A641B6C03F036
:100D340080530193019B01231E46244B1B6813F42B
:100D4400807F24D0A368012B35D0052B40D01D4BC8
:100D54001A6F22F001021A671A6F22F004021A674E
:100D6400A368002B3ED0FFF7B1FC0546154B1B6F63
:100D740013F0020F47D1FFF7A9FC401B41F288335F
:100D84009842F3D90320C7E000231E46D5E70F4A53
:100D9400136843F480731360FFF798FC05460B4B0C
:100DA4001B6813F4807FCDD1FFF790FC401B022811
:100DB400F5D90320B0E0034A136F43F0010313672E
:100DC400CEE700BF003802400000474200700040F8
:100DD400584B1A6F42F004021A671A6F42F001026C
:100DE4001A67BDE7FFF772FC0546524B1B6F13F001
:100DF400020F08D0FFF76AFC401B41F28833984287
:100E0400F3D9032088E0EEB9A369002B00F08380B6
:100E1400484A926802F00C02082A51D0022B17D0DB
:100E2400454B00221A66FFF751FC0446414B1B68F0
:100E340013F0007F42D0FFF749FC001B0228F5D9CC
:100E4400032069E03B4A136C23F080531364DBE70F
:100E5400394B00221A66FFF739FC0546354B1B68EF
:100E640013F0007F06D0FFF731FC401B0228F5D9B0
:100E7400032051E0E369226A1343626A43EA82135E
:100E8400A26A5208013A43EA0243E26A43EA02636D
:100E9400284A5360284B01221A66FFF717FC0446C0
:100EA400244B1B6813F0007F06D1FFF70FFC001BD7
:100EB4000228F5D903202FE000202DE000202BE0AC
:100EC400012B2BD01B4B5B6803F48001E269914238
:100ED40026D103F03F02216A8A4223D1616A47F690
:100EE400C0721A40B2EB811F1ED103F44031A26AD2
:100EF4005208013AB1EB024F18D103F07063E26A71
:100F0400B3EB026F14D1002006E0012070470120EA
:100F140002E0012000E0184602B070BD0120FBE7AA
:100F24000120F9E70120F7E70120F5E70120F3E7C5
:100F34000120F1E7003802400000474208B5334B76
:100F44009B6803F00C03042B5BD0082B5BD12F4B65
:100F54005A6802F03F025B6813F4800F2CD02B4BCD
:100F64005868C0F388104FEA401CBCEB000C6EEBD1
:100F74000E0E4FEA8E1343EA9C634FEA8C11B1EBD9
:100F84000C0163EB0E03DB0043EA5173C90011EB60
:100F9400000C43F10003590200234FEA4C2041EABC
:100FA400DC51FFF7F5F8194B5B68C3F301430133D8
:100FB4005B00B0FBF3F008BD144B5868C0F3881015
:100FC4004FEA401CBCEB000C6EEB0E0E4FEA8E1386
:100FD40043EA9C634FEA8C11B1EB0C0163EB0E0303
:100FE400DB0043EA5173C90011EB000C43F1000329
:100FF400990200234FEA8C2041EA9C51FFF7C8F87C
:10100400D1E70348D7E70348D5E700BF00380240DB
:1010140000127A000024F400002800F09B8070B5D0
:101024000D4604464F4B1B6803F007038B4208D25E
:10103400CBB24C4A1370136803F007038B4240F0A1
:101044008B80236813F0020F17D013F0040F04D021
:10105400454A936843F4E0539360236813F0080F00
:1010640004D0414A936843F4604393603E4A9368D2
:1010740023F0F003A1680B439360236813F0010F7E
:1010840032D06368012B21D09A1E012A25D9364A11
:10109400126812F0020F61D033498A6822F0030209
:1010A40013438B60FFF712FB06462F4B9B6803F03C
:1010B4000C036268B3EB820F16D0FFF707FB801BAB
:1010C40041F288339842F0D9032042E0264A12685C
:1010D40012F4003FE0D101203BE0234A126812F0F1
:1010E400007FD9D1012034E01E4B1B6803F00703B5
:1010F400AB4207D9EAB21B4B1A701B6803F0070313
:10110400AB422DD1236813F0040F06D0164A93681E
:1011140023F4E053E1680B439360236813F0080F52
:1011240007D0114A936823F46043216943EAC10359
:101134009360FFF703FF0C4B9B68C3F303130B4A45
:10114400D35CD8400A4B18600A4B1868FFF772FA50
:10115400002070BD012070470120FAE70120F8E764
:101164000120F6E7003C024000380240201C000841
:101174001800002014000020014B1868704700BFBD
:101184001800002008B5FFF7F7FF044B9B68C3F372
:101194008223034AD35CD84008BD00BF0038024014
:1011A400181C000808B5FFF7E7FF044B9B68C3F35E
:1011B4004233034AD35CD84008BD00BF0038024024
:1011C400181C0008026802F10C0353E8003F23F4E2
:1011D40090730C3242E800310029F3D1026802F125
:1011E400140353E8003F23F00103143242E80031B2
:1011F4000029F3D1036B012B05D0202380F8423062
:10120400002303637047026802F10C0353E8003FB4
:1012140023F010030C3242E800310029F3D1ECE74B
:1012240090F84130212B01D0022070478368B3F538
:10123400805F17D0036A5A1C02621A7803685A60E6
:10124400C38C9BB2013B9BB2C3844BB90268D36885
:1012540023F08003D3600268D36843F04003D36073
:10126400002070470369002BE4D1036A1B880268DD
:10127400C3F308035360036A02330362E0E7000028
:1012840010B504460268136923F44053C1680B4344
:101294001361836802691A4343691A43C3691A4391
:1012A4000168CB6823F4164323F00C031343CB608B
:1012B4000268536923F4407381690B4353610368E3
:1012C400314A934206D002F58062934202D0FFF77E
:1012D40059FF01E0FFF766FFE369B3F5004F29D03A
:1012E4000021031849411B1841F10001C90041EADA
:1012F4005371DB00181863684FEA83024FEA937353
:1013040041F10001FEF744FF204AA2FB00314909E4
:10131400642303FB11031B013233A2FB03235B0988
:1013240003F0F00202EB011203F00F0321681344EF
:101334008B6010BD0023021843EB0301121841F126
:101344000001C90041EA5271D200101841F10001B4
:10135400626892185B41FEF71BFF0C4AA2FB003146
:101364004909642303FB1103DB003233A2FB03238B
:101374005B095A0002F4F87202EB011203F007034E
:10138400216813448B60D4E7001001401F85EB51A2
:1013940060B310B5044690F8413013B3242384F8A5
:1013A40041302268D36823F40053D3602046FFF70A
:1013B40067FF2268136923F4904313612268536919
:1013C40023F02A0353612268D36843F40053D360A3
:1013D40000206064202384F8413084F84230606344
:1013E40010BD80F84030FFF76FFBD7E7012070474E
:1013F400704708B50168CA6822F04002CA6020221A
:1014040080F84120FFF7F4FF002008BD08B5806B89
:101414000023C385FFF724F808BD704790F84230D5
:10142400222B67D18368B3F5805F4DD0826AB3F510
:10143400805F04D0002B54D10369002B51D1036881
:101444005B681370836A01338362C38D9BB2013B73
:101454009BB2C385002B4FD100B583B00268D3681B
:1014640023F02003D3600268D36823F48073D3602D
:101474000268536923F001035361202380F842304A
:1014840000234363036B012B31D100230363026800
:1014940002F10C0353E8003F23F010030C3242E83E
:1014A40000310029F3D103681A6812F0100F05D037
:1014B40001911A6801925B680193019B818DFFF78A
:1014C400ACFF002003B000BD0269002AAED1826ADD
:1014D40003685B68C3F308031380836A023383627F
:1014E400B3E703685B6803F07F031370AAE7FEF7B2
:1014F400A1FFE6E7022070470020704710B582B0D4
:10150400044602681368D068516913F00F0F09D1BB
:1015140013F0200F0CD010F0200F09D02046FFF755
:101524007DFF16E011F0010115D110F4907F12D166
:10153400216B012979D013F0800F03D010F0800FB4
:1015440040F01F8113F0400F03D010F0400F40F023
:101554001C8102B010BD13F0010F06D010F4807F7F
:1015640003D0626C42F00102626413F0040F04D0F1
:1015740019B1626C42F00202626413F0020F04D0EB
:1015840019B1626C42F00402626413F0080F07D0D0
:1015940010F0200F00D119B1626C42F008026264AD
:1015A400626C002AD5D013F0200F02D010F0200F67
:1015B40029D123685B6903F04003626C12F0080FC1
:1015C40000D163B32046FFF7FDFD23685B6913F088
:1015D400400F20D0226802F1140353E8003F23F0A7
:1015E4004003143242E800310029F3D1E36B73B1B4
:1015F400684A1A65E06BFFF739F90028A9D0E06B57
:10160400036D9847A5E72046FFF708FFD1E720467A
:10161400FEF726FF9DE72046FEF722FF99E72046C6
:10162400FEF71EFF0023636493E713F0100F82D0CC
:1016340010F0100F3FF47FAF002301931368019360
:1016440053680193019B536913F0400F5ED0E26B22
:1016540013685B689BB2002B49D0A18D994246D98F
:10166400E385D369B3F5807F36D0226802F10C0399
:1016740053E8003F23F480730C3242E80031002920
:10168400F3D1226802F1140353E8003F23F001036D
:10169400143242E800310029F3D1226802F1140324
:1016A40053E8003F23F04003143242E8003100299C
:1016B400F3D1202384F842302163226802F10C0321
:1016C40053E8003F23F010030C3242E800310029B4
:1016D400F3D1E06BFFF780F802236363A18DE38D00
:1016E4009BB2C91A89B22046FFF797FE31E7A18D54
:1016F40099427FF42EAFD369B3F5807F7FF429AF8D
:10170400022363632046FFF788FE22E7A18DE38D61
:101714009BB2C91A89B2E38D9BB2002B3FF419AF77
:1017240000293FF416AF226802F10C0353E8003F8E
:1017340023F490730C3242E800300028F3D122687D
:1017440002F1140353E8003F23F00103143242E88A
:1017540000300028F3D1202384F84230206322682B
:1017640002F10C0353E8003F23F010030C3242E86B
:1017740000300028F3D1022363632046FFF74DFEB7
:10178400E7E62046FFF74CFDE3E62046FFF731FE8F
:10179400DFE600BF1114000881628285C285002340
:1017A4004364222380F84230036923B10268D3687A
:1017B40043F48073D3600268536943F001035361B7
:1017C4000268D36843F02003D3600020704708B553
:1017D40090F84230202B08D149B10AB9012008BD44
:1017E40000230363FFF7D8FFF9E70220F7E701209E
:1017F400F5E7FEE7FEE7FEE7FEE7FEE77047704722
:10180400704708B5FEF756FF08BD000008B502484A
:10181400FFF774FE08BD00BF94000020034AD2F80D
:10182400883043F47003C2F88830704700ED00E05C
:10183400DFF834D0FFF7F2FF0C480D490D4A0023BE
:1018440002E0D458C4500433C4188C42F9D30A4A71
:101854000A4C002301E013600432A242FBD300F0DF
:1018640019F8FEF799FE704700800120000000205F
:101874001C000020401C00081C000020E000002088
:10188400FEE702440346934200D1704703F8011B6C
:10189400F9E7000070B50D4B0D4C00261D1BB6EB8F
:1018A400A50F09D100F0AAF90A4C0B4B00261D1B09
:1018B400B6EBA50F05D170BD54F8043B984701362B
:1018C400EDE754F8043B98470136F1E7381C00086B
:1018D400381C0008381C00083C1C00082DE9F0479F
:1018E40082B00646DDF828E00846B4460D46002BD3
:1018F4004ED18A4214466DD9B2FA82F242B1C2F193
:101904002003954026FA03F394401D4306FA02FC93
:10191400260CA7B2B5FBF6F14FEA1C4306FB1155A2
:1019240043EA054301FB07F0984209D9E31801F1A2
:10193400FF3580F00381984240F20081023923444C
:101944001B1A1FFA8CFCB3FBF6F006FB10334CEAAF
:10195400034C00FB07F363450AD914EB0C0C00F1AC
:10196400FF3580F0ED80634540F2EA80A4440238FC
:1019740040EA0140ACEB030C0021BEF1000F04D09F
:101984002CFA02F30022CEE9003202B0BDE8F0875F
:101994008B4209D9BEF1000F01D0CEE900610021CC
:1019A400084602B0BDE8F087B3FA83F11746002970
:1019B4004DD1834202D3B24200F20F81B6EB070C41
:1019C40060EB030301201D46BEF1000FDDD0CEE91C
:1019D40000C5DAE7002A00F098801A46B4FA84F3C6
:1019E400002B40F0AF800B1B270CA6B20121B3FBE8
:1019F400F7F54FEA1C4007FB153340EA034306FBA7
:101A040005F8984507D9E31805F1FF3002D2984547
:101A140000F2E8800546A3EB08031FFA8CFCB3FB35
:101A2400F7F007FB10334CEA034C06FB00F3634565
:101A340008D914EB0C0C00F1FF3602D2634500F216
:101A4400CE803046ACEB030C40EA054095E7C1F18B
:101A540020058B4022FA05FC4CEA030C00FA01F441
:101A640026FA05F3E84002FA01F943EA04084FEACA
:101A74001C4206FA01FAB0FBF2F71FFA8CF602FBDD
:101A840017004FEA184444EA004407FB06F0A0425A
:101A94000AD91CEB040407F1FF3380F09C80A042B8
:101AA40040F29980023F6444241A1FFA88F3B4FB7D
:101AB400F2F002FB104443EA044300FB06F69E42A4
:101AC40009D91CEB030300F1FF3480F082809E42AD
:101AD4007FD90238634440EA0740A0FB09749B1B8A
:101AE400A3423E46A04664D361D0BEF1000F0AD0A3
:101AF400BAEB060263EB080303FA05F5CA40154383
:101B0400CB40CEE9005300213FE7730843EAC17399
:101B14004A08190C41EA02414FEAC67C9BB2B2FB67
:101B2400F4F02646A04627461F2243EA0143B1FBB0
:101B3400F4F1A3EB080341EA004158E72946FFE624
:101B4400284615E71A46C3F120019C4026FA01F302
:101B540020FA01F190400343270C06FA02FCB1FB82
:101B6400F7F0A6B207FB1015190C41EA054100FB7A
:101B740006F58D423BD9611801D28D4220D8491B0C
:101B84000138B1FBF7F5019505FB06F8019D9BB201
:101B940007FB151143EA0143434526D2E31805F137
:101BA400FF31C6D24345C4D2A91E2344C1E7BA4576
:101BB4009BD2B7EB090664EB0C040138A04694E70A
:101BC400651B29440238B1FBF7F5019505FB06F8BE
:101BD400DCE720467FE71F4666E70846F4E6A444B0
:101BE40002382FE7023D234415E70199A1E7491B79
:101BF400B1FBF7F5019505FB06F8C7E7F8B500BF9B
:101C0400F8BC08BC9E467047F8B500BFF8BC08BCD9
:041C14009E46704731
:101C180000000000010203040000000000000000B2
:081C280001020304060708098C
:081C3000B0FCFF7F0100000081
:041C3800F1010008AE
:041C3C00C9010008D2
:101C40000004000400040004000000000000000084
:0C1C500001000000100000000024F4005F
:0400000508001835A2
:00000001FF
